:020000040800F2
:1000000088090020010100086F2C0008951D0008D8
:100010006D2C000891010008053100080000000067
:10002000000000000000000000000000732C000829
:100030009301000800000000712C0008752C0008D6
:100040001B0100081B0100081B0100081B01000820
:100050001B0100081B0100081B0100081B01000810
:100060001B0100081B0100081B0100081B01000800
:100070001B0100081B0100081B0100081B010008F0
:100080001B0100081B0100081B0100081B010008E0
:100090001B0100081B0100081B0100081B010008D0
:1000A0001B0100081B0100081B0100081B010008C0
:1000B000DD2C0008E92C0008F52C0008A51D00081F
:1000C000991D0008BD1D0008B11D00081B01000896
:1000D0001B0100081B010008CD3000081B010008AF
:1000E0001B0100081B0100081B010008DFF80CD0F1
:1000F00000F03CF8004800478531000888090020DE
:100100000648804706480047FEE7FEE7FEE7FEE7B1
:10011000FEE7FEE7FEE7FEE7FEE7FEE7D92C000874
:10012000ED00000840EA01039B0703D009E008C97D
:10013000121F08C0042AFAD203E011F8013B00F8AC
:10014000013B521EF9D27047D2B201E000F8012BF8
:10015000491EFBD270470022F6E710B513460A4647
:1001600004461946FFF7F0FF204610BD064C074D28
:1001700006E0E06840F0010394E807009847103477
:10018000AC42F6D3FFF7B6FF083300082833000867
:10019000FEE7704710B590F821100024022903D023
:1001A0000421816301243DE001680A6822F00E0207
:1001B0000A6001680A6822F001020A601A4A0168AE
:1001C000914201D1012121E0174A1432914201D11B
:1001D00010211BE0144A2832914201D1891515E003
:1001E000114A3C32914201D189140FE00E4A50323B
:1001F000914202D14FF4803108E00B4A64329142BF
:1002000002D14FF4801101E04FF08071064A083AA4
:100210005160012180F82110002180F82010416BED
:1002200001B18847204610BD0800024090F8210027
:10023000704700002DE9F84FDFF8B891002409F16C
:10024000040A0AF1040B23460F270BF1040EC9E040
:100250000125A5402A40AA427DD1674ED1F804C0AD
:10026000ACEB0608B44532D014DCBCF1030F3AD035
:1002700009DCBCF1000F2AD0BCF1010F1CD0BCF18D
:10028000020F31D11DE0BCF1110F17D0BCF1120FDC
:100290002AD119E0B8F5881F19D006DCB8F5803FDF
:1002A00015D0B8F5801F1FD111E0B8F5001F0ED092
:1002B000B8F5041F18D10AE0CB6815E0CB681B1D08
:1002C00012E0CB6808330FE0CB680C330CE08B688E
:1002D0002BB1012B4FF0080303D0456104E0042348
:1002E00002E0056100E00023FF2A01D8064601E094
:1002F00000F104064FEA840501D9A5F12005D6F8DE
:10030000008007FA05FC28EA0C0803FA05F548EA1C
:100310000508C6F800804D68ED0062D5374DAE691E
:1003200046F00106AE61AD6924F0030605F0010553
:100330000095334D06EB050CDCF80850A607360F88
:1003400007FA06F825EA0805DFF8B880404503D12A
:100350004FF0000817E044E0DFF8AC80404502D1E0
:100360004FF001080FE0DFF8A480404502D14FF0C4
:10037000020808E0DFF89880404502D14FF00308FA
:1003800001E04FF0040808FA06F848EA0508CCF83E
:1003900008804D68D9F80060ED034D4601D516433D
:1003A00000E096432E604D68DAF80060AD035546D4
:1003B00001D5164300E096432E604D68DBF80060DF
:1003C000ED025D4601D5164300E096432E604D6870
:1003D000DEF80060AD02754601D5164300E0964395
:1003E0002E60641C0D682A46E5407FF431AFBDE8FD
:1003F000F88F0000000401400000111000100240BE
:100400000000014000080140000C014000100140C4
:10041000001401400AB1016170470904FBE70000C4
:100420000148806870470000100000207047704746
:100430002DE9F041016804464A694E6890F83E0093
:100440000025D743FA050BD4F243D20508D46FF444
:10045000807201254A6121680A6842F400420A60FC
:10046000B90508D4F143C90505D422686FF40071B9
:1004700045F002055161790525D4F143C90522D41F
:10048000638D94F83D10226B202808D13BB92129B7
:1004900010D029290ED0282901D1212A0AD022687A
:1004A0006FF48061516145F00405102806D04028A2
:1004B00004D008E0204602F047F804E02068016814
:1004C00041F400710160380508D4F043C00505D43B
:1004D00021686FF4006045F008054861002D07D0E1
:1004E000206C284320642046BDE8F04101F0CABCDE
:1004F000BDE8F0812DE9F041026800245168C76A27
:1005000090F83E5090F83D60102D1CD0402D1AD030
:10051000036C002B7ED053694FF02805DB439F0707
:1005200079D4CF43BF0576D4016C01B1946990F8BA
:100530003D3000219D430B466ED0C91E516180F8AD
:100540003C30BDE8F081946953694FF42A0CDB43D9
:100550005FEAC37E4FF02A4604D06745F1D0B74228
:10056000EFD010E0CF43BF050DD4C16A614501D182
:10057000012103E0C16AB14201D10821C162BDE895
:10058000F04101F04BBF1E0716D4CE43B60513D47D
:10059000416CC9B21161416B11B9826B002AD0D094
:1005A000896A19B9816B896A0029CAD000684168D3
:1005B00041F400614160C4E79E0706D4CE43B6050E
:1005C00003D4BDE8F04101F07DBEE4435268640706
:1005D0004FEA02521BD4002AB3DB1A0608D4CA43DE
:1005E000520505D45A0705D5BDE8F04101F00EBE0D
:1005F0005A07A6D4C9438905A3D4102D03D0BDE85A
:10060000F04101F051BFBDE8F04101F0C5BD002A45
:1006100097DB02E015E029E015E05A0608D4CA434A
:10062000520505D45A0705D5BDE8F04101F040BD9B
:100630005A0786D4C943890583D4BDE8F04101F047
:10064000CDBC946967E7556825F480655560E24341
:10065000540700D50121120601D5828900E0028BE2
:1006600080F83C3092B2FFF7E2FE6AE7DC0606D47F
:10067000CC43A40503D4BDE8F04101F0A7BF212E6F
:1006800027D0292E25D05C0655D4CC43640552D4FE
:100690005B0752D590F83D10438D002B8BD012692B
:1006A000436A1A70426A521C4262428D521E42854F
:1006B000428D002AD9D12A29D7D101684A6822F46B
:1006C00080624A602221016380F83D5000F084F985
:1006D00037E71C0623D4CC43640520D45B0720D520
:1006E00090F83D10438D002BBFD0436A1B781361F7
:1006F000426A521C4262428D521E4285428D002A3D
:10070000B3D12929B1D101684A6822F480624A60D4
:100710002121016380F83D5000F05FF911E75B078C
:10072000A3D4C9438905A0D4418D00299DD0416A35
:10073000097811610AE05B0797D4C943890594D40D
:10074000418D002991D01169426A1170416A491C9A
:100750004162418D491E4185F3E6704770B5040042
:1007600025D094F83D00002520B984F83C5020465F
:1007700000F0BEF8242084F83D002068016821F0D4
:10078000010101602068016841F4004101602068B6
:10079000016821F40041016000F068FB4D4A616886
:1007A000914201D84C4900E04C49884201D20120D5
:1007B00070BD4B492368B0FBF1F15E6826F03F063F
:1007C0000E435E606368934206D94FF496735943B3
:1007D0004FF47A73B1FBF3F12368491C1E6A26F0CB
:1007E0003F06314319626168914210D84900401EAA
:1007F000B0FBF1F2521CC2F30B02042A01D2042016
:1008000022E0B0FBF1F0401CC0F30B001CE0A2683A
:10081000F2B301EBC10303EB0116431EB3FBF6F386
:100820005B1C43F480431B0549D092B301EBC1022A
:1008300002EB0111401EB0FBF1F0401CC0F30B00B5
:1008400040F4804040F400402168CA694CF6FF73D0
:100850009A431043C861D4E9071001432068026835
:1008600022F0C00211430160D4E903010143206872
:10087000826848F2FF339A4311438160D4E905014D
:1008800008432168CA6822F0FF021043C86001E0F3
:100890000EE016E02068016841F001010160256466
:1008A000202084F83D00256384F83E50002070BD70
:1008B00001EB4106431EB3FBF6F35B1CB3E70120DB
:1008C000C2E701EB4101401EB0FBF1F0401CC0F358
:1008D0000B00B7E7A086010080841E0000093D00E0
:1008E00040420F00704770477047704770470000E4
:1008F00030B585B000210091019102910391314DF5
:100900000368314C122103223048AB422CD1A36939
:1009100043F00803A361A369039203F0080304935F
:100920001302CDE900316946FFF784FC284841688D
:1009300041F0E06141F002014160E06940F40010E3
:10094000E061E069002200F40010049001211F2002
:1009500000F0CCF81F2000F0BBF80022012120207D
:1009600000F0C4F8202028E01A4DAB4227D1A3693B
:1009700043F00803A361A369039203F008030493FF
:100980004FF44063CDE900316946FFF753FCE0695D
:1009900040F48000E061E069002200F480000490EF
:1009A0000121212000F0A2F8212000F091F800227E
:1009B0000121222000F09AF8222000F089F805B0E9
:1009C00030BD00000054004000100240000C014007
:1009D000000001400058004070477047024881689D
:1009E000027811448160704710000020074810B55C
:1009F000016841F010010160032000F097F8012028
:100A000000F006F800F024F8002010BD002002409D
:100A100070B50D4D04464FF47A712878B1FBF0F0B3
:100A20000A490968B1FBF0F000F098FC48B9102CB5
:100A300007D200222146501E00F058F800206C60BA
:100A400070BD012070BD0000100000201C000020BF
:100A50001D4808B5816941F001018161816901F09A
:100A600001010091C16941F08051C161C06900225A
:100A700000F08050009001216FF00B0000F036F87C
:100A8000002201216FF00A0000F030F8002201215D
:100A90006FF0090000F02AF801210022881F00F001
:100AA00025F801210022481F00F020F80121002232
:100AB000C81E00F01BF80548416821F0E06141F0D4
:100AC0000071416008BD00000010024000000140BC
:100AD000002809DB00F01F0201219140400980003D
:100AE00000F1E020C0F8001170470000F0B40E4B98
:100AF0001B680C46C3F30223C3F10705042D00D97C
:100B00000425191D072901D2002300E0DB1E012660
:100B100006FA05F1491E214099409E40761E164076
:100B20003143F0BC02F0EFBA0CED00E0064900F0F2
:100B3000070208684FF6FF03184040EA0220034A04
:100B400010430860704700000CED00E00000FA055B
:100B50002DE9F04186B0040004D094F8A9020025E4
:100B600020B108E0012006B0BDE8F08184F8A85269
:100B7000204600F05BF8032084F8A902206802F008
:100B8000B8FA04F11001142288466846FFF7CAFA41
:100B900094E80F0002F0A0FA0226D0BB00212068E2
:100BA00002F0AEFA002001270FE000BF00EB800149
:100BB00004EBC10181F8297001F8280FC881CD70BC
:100BC0000D614D61401CC0B28D6161688142EDD8FC
:100BD000002011E000EB800104EBC10181F86951B4
:100BE00081F8680181F86B51C1F87851C1F87C51E6
:100BF000401CC0B2C1F8805161688142EAD8142219
:100C000041466846FFF78EFA94E80F0002F068FA52
:100C100010B184F8A962A5E784F8245084F8A97279
:100C2000206802F05BFA00209DE7000008B500682C
:100C30000649884208D10648C16941F40001C161F2
:100C4000C06900F40000009008BD0000005C004096
:100C5000001002402DE9F84305460078354CC007E6
:100C600054D0E0690026C00008D4E06940F080500C
:100C7000E061E069012600F0805000902E48016894
:100C8000C90512D40168804641F480710160FFF704
:100C9000C7FB074605E000BFFFF7C2FBC01B642887
:100CA00023D8D8F80000C005F6D5206A10F44070AB
:100CB00021D0A98801F4407181421CD0206A1F49CB
:100CC000012220F440700A6000220A602062C007FE
:100CD00011D0FFF7A5FB074641F2883808E000BFB6
:100CE000FFF79EFBC11B414502D90320BDE8F883F5
:100CF000206A8007F4D5206A696820F440700843B0
:100D000020621EB1E06920F08050E0612878800701
:100D100005D56068A96820F44040084360602878E1
:100D2000C00605D56068E96820F48000084360606B
:100D30000020DBE700100240007000404004424207
:100D40002DE9F0470F46050061D0434E306800F0B2
:100D50000700B84209D2306820F0070038433060FD
:100D6000306800F00700B84251D128683B4C810739
:100D700012D5400703D5606840F4E06060602878D1
:100D8000000703D5606840F4605060606068A9683F
:100D900020F0F000084360602878C00728D0686819
:100DA000012810D02168022810D0890700292EDAE6
:100DB000616821F0030101436160FFF731FB804668
:100DC00041F288390DE021688903EFE78901EDE7F9
:100DD000FFF726FBA0EB0801494502D90320BDE837
:100DE000F0876068696800F00C00B0EB810FEFD10C
:100DF000306800F00700B8420BD9306820F00700D7
:100E000038433060306800F00700B84201D001205C
:100E1000E5E72878400705D56068E96820F4E060D8
:100E2000084360602878000706D56068296920F4C7
:100E3000605040EAC100606000F038F86168084A1C
:100E4000C1F30311515CC8400649086006480068B8
:100E5000FFF7DEFD0020C2E7002002400010024044
:100E6000EE3200081C000020140000200448054950
:100E700000684968044AC1F30221515CC8407047C8
:100E80001C00002000100240FE3200080448054902
:100E900000684968044AC1F3C221515CC8407047E8
:100EA0001C00002000100240FE32000812A185B094
:100EB0000FC98DE80F0014A0144A0068049051680F
:100EC000134801F00C03042B10D0082B0ED1C1F3F2
:100ED0008343C9031DF803000AD5516804AAC1F36E
:100EE0004041515C0A4A5043B0FBF1F005B07047F5
:100EF00008494843FAE70000020304050607080909
:100F00000A0B0C0D0E0F1010010200000010024021
:100F100000127A0000093D002DE9F84F040070D05E
:100F20002078C04DC00749D06868C0F3810001280F
:100F300007D06868C0F38100022809D16868C0033F
:100F400006D52868800339D560680028E7D035E0E9
:100F50006068B0F5803F0BD010B1B0F5A02F11D074
:100F6000286820F480302860286820F4802002E07F
:100F7000286840F480302860606890B1FFF750FA2C
:100F800006460AE0286840F480202860F0E700BFA9
:100F9000FFF746FA801B642873D828688003F7D5CA
:100FA0000CE0FFF73DFA064605E000BFFFF738FA10
:100FB000801B6428F0D828688003F7D420789A4EE4
:100FC00080074FF001094FF0000839D5686810F02C
:100FD0000C0F07D06868C0F38100022809D1686847
:100FE000C00306D42868800714D52069012808D1D9
:100FF00010E02069B0B1C6F80090FFF711FA07467B
:1010000005E00AE1FFF70CFAC01B0228C4D82868E3
:101010008007F7D52868616920F0F80040EAC10030
:1010200028600DE0C6F80080FFF7FAF9074604E0F3
:10103000FFF7F6F9C01B022823D828688007F7D4E9
:10104000207800072CD57948A169D9B1C0F8009063
:10105000FFF7E6F9074604E0FFF7E2F9C01B0228B4
:101060000FD8686A8007F7D571484FF4FA510068C5
:10107000B0FBF1F0009000BF0098411E0091FAD241
:101080000EE080E0C0F80080FFF7CAF9074604E0F0
:10109000FFF7C6F9C01B022875D8686A8007F7D425
:1010A0002078400760D5E8690027C00008D4E869C7
:1010B00040F08050E861E869012700F0805000901E
:1010C0005C480168C90513D40168834641F4807106
:1010D0000160FFF7A5F9824606E000BFFFF7A0F91F
:1010E000A0EB0A0064284ED8DBF80000C005F5D557
:1010F000E06801280AD008B1052813D0286A20F03A
:1011000001002862286A20F0040002E0286A40F00A
:1011100001002862E06841F2883B98B1FFF780F94E
:1011200082460BE0286A40F004002862EEE700BF28
:10113000FFF776F9A0EB0A0159455AD8286A8007CB
:10114000F6D50CE0FFF76CF9824605E0FFF768F989
:10115000A0EB0A0159454CD8286A8007F6D41FB184
:10116000E86920F08050E861E06988B36968C1F3FC
:101170008101022944D00228C6F8608004D0FFF71C
:101180004FF9044638E034E0FFF74AF9074604E037
:10119000FFF746F9C01B02282BD828688001F7D436
:1011A000206AB0F5803F05D16868A16820F400305E
:1011B00008436860D4E908010843696821F47411A0
:1011C00008436860C6F86090FFF72AF9044606E015
:1011D00025E000BFFFF724F9001B022809D8286882
:1011E0008001F7D51BE000BFFFF71AF9001B0228AA
:1011F00002D90320BDE8F88F28688001F4D40EE0FE
:101200000128F7D06868226A00F48031914204D145
:10121000616A00F47010884201D00120EAE70020E2
:10122000E8E7000000100240000042428004424211
:101230001C0000200070004070B5040009D0606AF6
:10124000002540B125616561A56294F8510040B167
:101250000CE0012070BD6068B0F5827FF4D0E561DC
:10126000F2E784F85050204600F040F8022084F85D
:1012700051002068016821F040010160A0882189A7
:1012800000F4827001F404410843A18901F4006173
:101290000843217C01F002010843217D01F0010196
:1012A0000843218B01F400710843217F01F03801CC
:1012B000084394F8201001F080010843218D01F4C7
:1012C0000051084321680860A069042101EA104028
:1012D000216848602068C16921F40061C1616565C9
:1012E000012084F85100002070BD000030B585B0A9
:1012F00000240094019402940394006814498842E5
:1013000023D11448816941F480518161816901F4DC
:1013100080510491816941F00401816180690E4D21
:1013200000F004000490A02000900220019003200F
:10133000039069462846FEF77DFF4020CDE9000472
:10134000694628460294FEF775FF05B030BD0000DF
:1013500000300140001002400008014010B5401E5E
:10136000B0F1807F01D3012010BD4FF0E024606117
:101370000F21601701F0C7FE0020A0610720206147
:10138000002010BD7047704710B590F83C20012A2E
:1013900022D0012280F83C20CA688C6822F4407276
:1013A00022434C6822F4806222430C6822F40062DB
:1013B00022430C6922F4805222434C6922F40052E9
:1013C0002243C969002322F480420A4301684A6427
:1013D00080F83C30002010BD022010BD70B590F8A0
:1013E0003C20012A26D0012480F83C40022280F8CB
:1013F0003D2003685A689D6822F070060A683243EF
:101400005A600D4B02689A4208D0B2F1804F05D065
:101410000A4B9A4202D00A4B9A4204D1496825F0FD
:1014200080031943916080F83D40002180F83C1012
:10143000084670BD022070BD002C01400004004031
:101440000008004010B5040003D094F83D0010B12E
:1014500007E0012010BD002084F83C00204600F089
:101460001FF8022084F83D00211D206801F05AFC7D
:10147000012084F8460084F83E0084F83F0084F898
:10148000400084F8410084F8420084F8430084F866
:10149000440084F8450084F83D00002010BD0000A1
:1014A00008B500680649884208D10648816941F4B8
:1014B00000618161806900F40060009008BD000057
:1014C000002C01400010024070B5044690F83C002A
:1014D000012817D0012584F83C50022084F83D00F3
:1014E0002068826822F0770222F47F4282600868D6
:1014F000502830D00DDC20284DD005DC98B31028C2
:101500003BD148E0022070BD302844D0402834D17F
:1015100039E0602828D0702806D0B0F5805F2CD044
:10152000B0F5005F29D10AE0CB68D1E9012120683C
:1015300001F03BFC2068816841F0770109E0CB684D
:10154000D1E90121206801F030FC2068816841F474
:101550008041816011E0CA684968206801F0DAFCC6
:101560005021206807E016E0CA684968206801F049
:10157000E2FC6021206801F022FC84F83D5000204C
:1015800084F83C0070BDCA684968206801F0C2FC5C
:1015900040212068EFE7226801461046EBE72DE97D
:1015A000F0410D46040003D094F83D0018B108E066
:1015B0000120BDE8F081002084F83C00204600F0C6
:1015C00041F8022084F83D002068816844F2070257
:1015D00091438160211D206801F0A4FB226890687E
:1015E0009169166A2B68AF69034340F20330814367
:1015F00041EA0721A868EF6908434FF6FC41884398
:10160000E96840EA0720014328692F6A000140EA9F
:101610000730084369686D6926F0220646EA051519
:10162000294393602268906154F8460B01620120BF
:1016300004F81F09E0752076E0762077A075002079
:10164000B7E70000F0B585B0002600960196029637
:101650000396016835480125354F364CB1F1804F6E
:101660002CD0354A914227D1C16941F00201C161B4
:10167000C16901F002010491816941F008018161B1
:101680008069694600F008000490302000900295BF
:101690003846FEF7CFFD606820F4406040F0E0601F
:1016A00040F400606060002211461D20FFF71EFA22
:1016B0005FF01D00FFF70CFA05B0F0BDC16941F005
:1016C0000101C161C16901F001010491816941F029
:1016D00004018161816901F004010491816941F093
:1016E000080181618069694600F0080004904FF4A8
:1016F0000040009002951148FEF79CFD0820CDE9BE
:101700000006694602953846FEF794FD606820F4AD
:10171000407040F0E06040F480706060002211464C
:101720001C20FFF7E3F91C20C4E700000010024072
:10173000000C01400000014000040040000801408E
:1017400070B590F83E60044690F83F5090F84230F3
:1017500090F84320022021B104290ED0012E1BD184
:1017600014E0012E18D1012B16D184F83E0084F824
:10177000420001220021206820E0012D0CD1012A25
:101780000AD184F83F0084F8430014E0012D03D10E
:10179000012B01D1012A01D0012070BD84F83E0047
:1017A00084F83F0084F8420084F8430001220021BD
:1017B000206801F0EDFA01220421206801F0E8FA26
:1017C0002068016841F001010160002070BD704790
:1017D00070B50446006801694FF00005C9438907E8
:1017E00015D4C168C943890711D4E91E01610120DC
:1017F0002077206880698007204602D0FFF7E7FF46
:1018000004E000F0BFF8204600F04EF9257720688C
:101810000169C943490717D4C168C943490713D4AB
:101820006FF004010161022020772068806910F4C4
:10183000407F204602D0FFF7CAFF04E000F0A2F884
:10184000204600F031F9257720680169C94309076E
:1018500016D4C168C943090712D46FF008010161A9
:10186000042020772068C0698007204602D0FFF757
:10187000AEFF04E000F086F8204600F015F9257769
:1018800020680169C943C90617D4C168C943C9069C
:1018900013D46FF010010161082020772068C0691F
:1018A00010F4407F204602D0FFF791FF04E000F0E3
:1018B00069F8204600F0F8F8257720680169C943E7
:1018C000C90708D1C168C943C90704D1891E01618C
:1018D000204600F039F920680169C943090609D496
:1018E000C168C943090605D46FF080010161204633
:1018F000FFF748FD20680169C943490609D4C1685A
:10190000C943490605D46FF040010161204600F04B
:101910001CF920680169C94389060BD4C168C94311
:10192000890607D46FF0200101612046BDE87040B0
:10193000FFF729BD70BD000000B585B00021009102
:1019400001910291039100680B49884212D10B4822
:10195000816941F0040181618069694600F00400F9
:1019600004904FF4A060009002200190039004487E
:10197000FEF760FC05B000BD002C014000100240E5
:1019800000080140704770B5044690F83C000D46D1
:1019900001280AD0012084F83C0042B1042A18D062
:1019A000082A2AD00C2A4DD139E0022070BD2068C7
:1019B00001F00EFA2068816941F008018161206818
:1019C000816921F004018161206881692A691143DC
:1019D00011E0206801F024FA2068816941F4006177
:1019E00081612068816921F4806181612068816959
:1019F0002A6941EA0221816124E0206801F03CFA71
:101A00002068C16941F00801C1612068C16921F005
:101A10000401C1612068C1692A69114311E020688D
:101A200001F056FA2068C16941F40061C161206883
:101A3000C16921F48061C1612068C1692A6941EAF4
:101A40000221C161002084F83C0070BD10B5040083
:101A500003D094F83D0010B107E0012010BD002034
:101A600084F83C00204600F01EF8022084F83D0077
:101A7000211D206801F056F9012084F8460084F801
:101A80003E0084F83F0084F8400084F8410084F868
:101A9000420084F8430084F8440084F8450084F848
:101AA0003D00002010BD70477047000010B504468F
:101AB000022249B104290ED0082913D094F841001C
:101AC000012816D0012010BD94F83E000128F9D15C
:101AD00084F83E200FE094F83F000128F2D184F80A
:101AE0003F2008E094F840000128EBD184F8402022
:101AF00001E084F841200122206801F049F90F49F2
:101B00002068884203D1426C42F40042426420685B
:101B1000884208D0B0F1804F05D00949884202D0F0
:101B20000849884204D1816801F00701062903D0E1
:101B3000016841F001010160002010BD002C01404E
:101B400000040040000800407047704770470000E4
:101B500070B5026804461068D168536910F00F0F21
:101B600052D003F0010501F490762E435FD0C207F6
:101B700005D0CA0503D5E26B42F00102E2634207D9
:101B800005D5DA0703D0E26B42F00202E263820776
:101B900005D5DA0703D0E26B42F00402E2630207E4
:101BA00007D501F020022A4303D0E26B42F008027D
:101BB000E263E26B002A33D0800604D5880602D5A2
:101BC000204601F0E0F920684069E16BC0F3801025
:101BD000090700D428B3204601F0C7F920684169FD
:101BE00049061AD5416921F040014161606BA0B1FD
:101BF0002D494163606BFEF7CDFA002810D0606B71
:101C0000416BBDE870400847830610D58B060ED5A2
:101C10002046BDE8704001F0B6B92046FFF796FFB8
:101C200070BD2046FFF792FF0020E06370BD030601
:101C30002BD50B0629D594F839002128F6D1A068B8
:101C4000B0F5805F01D12069B0B1206A411C2162EA
:101C5000216800784860E08C401E0004000CE0849D
:101C6000E4D12068C16821F08001C1602068C168AA
:101C700041F04001C16070BD206A0088C0F30800D7
:101C80005060206A801C2062E5E74006F3D54806D4
:101C9000F1D5D168204621F04001D160202184F89F
:101CA000391000F076F870BD5B2F000870B50400A5
:101CB00004D094F83900002510B106E0012070BD71
:101CC00084F83850204600F023F8242084F83900A6
:101CD0002068C16821F40051C160204601F09AF9E2
:101CE0002068016921F4904101612068416921F077
:101CF0002A0141612068C16841F40051C160E56377
:101D0000202084F8390084F83A00002070BD0000DB
:101D100030B585B0002400940194029403940068C7
:101D2000184988422BD11848C16941F40031C1617A
:101D3000C16901F400310491816941F004018161BC
:101D40008069124D00F004000490042000900220ED
:101D500001900320039069462846FEF76BFA08209D
:101D6000CDE90004694628460294FEF763FA002292
:101D700001212620FEF7BAFE2620FEF7A9FE05B0B7
:101D800030BD000000440040001002400008014047
:101D900070477047FEE700000148FEF749BB0000AE
:101DA000200000200148FEF7A5BB00002000002015
:101DB0000148FEF73DBB0000740000200148FEF71B
:101DC00099BB00007400002038B5406A002190F8EB
:101DD0003D202B4B46F2A8141B68B3FBF4F3C3EB76
:101DE000C30303EB830300933BB15B1E00930368C3
:101DF0001B689B0505D5009BF6E7036C43F02003A9
:101E00000364436B03B19962836B03B19962036806
:101E10001C6824F480641C604185436B03B15963E2
:101E2000836B03B1596303681C6824F001041C60D0
:101E300090F83D402023602C0BD0282434EA020285
:101E40000FD080F83D3080F83E1000BFFEF785FCD3
:101E500038BD80F83D3080F83E100164FEF7E6FAA8
:101E600038BD0268136843F0010313600268136809
:101E700043F480631360016380F83D40E6E70000AF
:101E80001C00002070B5044690F83D0094F83E1008
:101E9000102901D0402906D1222804D121680A68DE
:101EA00022F400620A60282131EA00024FF00005A6
:101EB0004FF0200626D021684968090505D460281E
:101EC00003D084F83D6084F83E5025632068416863
:101ED000090537D5416821F400614160606B3D49D7
:101EE00090F82120012A11D04163606BFEF752F96E
:101EF00038B32068016821F00101016084F83D6079
:101F0000606B1CE0256384F83D10DFE7A06B416344
:101F1000A06BFEF73FF9A0B120684169C9434906AB
:101F200005D40069616A0870606A401C60622068BC
:101F3000016821F00101016084F83D60A06B416BF4
:101F4000884710E094F83D10602910D04169C943DA
:101F5000490605D40069616A0870606A401C6062C5
:101F60002046FEF7FAFB206CC1071CD115E084F86F
:101F70003D6025644169C943490605D40069616A29
:101F80000870606A401C60622068016821F00101ED
:101F900001602046FEF74AFAE5E7810703D44107CE
:101FA00001D4000704D52068416821F4E061416054
:101FB00094F83D00216C49070BD5282809D1064823
:101FC000E062256384F83D6084F83E502046FEF7C9
:101FD00089FC70BDC91D00080000FFFF10B5C26A72
:101FE000438D0168042B06D0438D032B08D0438D0D
:101FF000022B1DD012E04A6822F480624A600CE095
:102000004B6823F480634B60042A06D0022A04D074
:1020100001680A6822F480620A6001680969426AFC
:102020001170416A491C4162418D491E418510BDB4
:10203000012A30D0102A2ED0042A30D0022A2ED0E5
:102040000A6842F400720A6001680969426A117004
:10205000416A491C4162428D521E428502681269E2
:102060000A70416A491C4162418D491E41850168DF
:102070004A6822F440724A60202180F83D1090F8AE
:102080003E200021402A80F83E100CD0122101632E
:10209000FEF729FC10BD0A6822F48062D3E70A68C3
:1020A00042F48062CFE70163FEF71FFC10BD000021
:1020B00038B590F83D10222914D1418D032912D949
:1020C00001680969426A1170416A491C4162418D87
:1020D000491E4185418D032904D10068416821F4DE
:1020E0008061416038BDC26A022AFBD0012901D05B
:1020F0000029F7D1274946F2A81300220968B1FB4D
:10210000F3F101EB8101009101682023009C641E22
:10211000009422D00C68A405F8D40C6824F48064E0
:102120000C6001684C6824F4E0644C600168096943
:10213000446A2170416A491C4162418D491E4185B2
:1021400080F83D3090F83E1080F83E2040291DD0A8
:1021500012210163FEF7C7FB38BD046C44F0200474
:1021600004644C6824F4E0644C6001680969446AC2
:102170002170416A491C4162418D491E418580F8A8
:102180003D3080F83E20FEF7E8FA38BD0263FEF7E6
:10219000ACFB38BD1C00002010B5C16A90F83D2092
:1021A000212A0BD1428D52B1416A0268097811612E
:1021B000416A491C4162418D491E418510BD002282
:1021C0002023082910D020290ED011F5803F0BD0F4
:1021D00001684C6824F4E0644C601121016380F8CC
:1021E0003E2080F83D300EE001684C6824F4E06445
:1021F0004C6001680C6844F400740C60026380F861
:102200003D3080F83E20FEF76FFB10BD10B590F812
:102210003D1090F83E30C26A048DB4B1212903D03C
:10222000402B11D122290FD1418DE1B390F83E10FE
:10223000402942D0416A026809781161416A491C0B
:102240004162418D491E418510BD2129E8D12023DD
:102250000021082A13D0202A11D012F5803F0ED079
:102260000268546824F4E06454601122026380F828
:102270003E1080F83D3000BFFEF736FB10BD02680F
:10228000546824F4E06454600268146844F40074F0
:102290001460016380F83D3090F83E2080F83E10D5
:1022A000402AE9D100E002E0FEF720FB10BD006803
:1022B000416821F48061416010BDBDE8104000F02C
:1022C000F3B8000078B590F83E50C26A046B90F8FD
:1022D0003D6000230168222E73D1066D0EB9402D9A
:1022E0006FD0056D1DB90569B5F5404F1BD0458D03
:1022F00095B3468D484D012E20D0448D022C4DD0F3
:102300000C6844F480640C6001684C68240579D53D
:10231000AA4273D0012A71D0082A6FD0102A6DD03A
:10232000202A6BD06EE04A698A6900920A6842F4FA
:1023300080720A60016D491C016578BDAA4214D102
:102340000A6822F480620A6001684A68120504D5AE
:102350000A6822F4806217E0FFE74A698A690092FE
:102360000A6842F400720A6050E0082A10D0202A5D
:102370000ED0122C0AD0042A03D0022A01D0102A2F
:10238000E6D10A6842F480620A603BE0012ADFD0AD
:102390000A6822F480620A600168DEE7042A11D02C
:1023A000022A0FD0102A0DD00C6844F400640C608F
:1023B00001684C698C6900940C6824F480640C609A
:1023C00008E025E00C6844F480640C6001684C6906
:1023D0008969009101684C68240517D5AA4207D085
:1023E000012A05D0082A03D0102A01D0202A0DD1B5
:1023F0004A6842F480524A6008E0FFE74A6842F4C3
:1024000080524A6001684A6989690091036578BD14
:1024100048698869009078BD0000FFFF90F83E1081
:10242000402910D00169B1F5804F19D0016DA9B3D1
:10243000016D012910D1416C5FF0F10201F440718E
:1024400042EAD11106E0016D0029416C05D0C9B204
:1024500041F0010100680161704701F0FE01F9E7F8
:1024600090F83D102129416C09D0C9B241F0010119
:1024700002681161416B29B1896A49B902E001F032
:10248000FE01F5E7816B0029E6D0896A0029E3D0D7
:102490000068416841F4006141607047FFE7416CAA
:1024A000F02201F44071CBE710B590F83D10026DB9
:1024B00022B3026D012A2FD0026D022A1DD12229DA
:1024C00031D0428D0AB1212933D0428D002A14D156
:1024D000212912D101684A6822F4E0624A60016849
:1024E0000A6842F400720A6000210163202280F829
:1024F0003D2080F83E10FEF7F9F910BDC16C0129AE
:10250000816C02D0C1F3072108E00268C9B21161F1
:10251000016D891C016510BD816CC9B20268116131
:10252000016D491CF6E70068016841F480710160A3
:1025300010BD416A026809781161416A491C416213
:10254000418D491E418510BD2DE9F04190F83D4077
:10255000C26A002320261C4F01686FF48065082A98
:1025600001D0202A01D1282C04D0212C16D04D6175
:10257000BDE8F081C7624A6822F4E0624A600168FF
:102580004D6101680A6822F480620A60036380F882
:102590003D6080F83E30FEF7A5F9E9E7C7622122E9
:1025A000026380F83D6080F83E304A6822F4E062C1
:1025B0004A6001684D6101680A6822F480620A601D
:1025C000FEF70BFAD4E700000000FFFFF8B590F823
:1025D0003D6004460068416821F4E0614160206884
:1025E000002541690091016841F001010160206806
:1025F000016821F48061016020684168090520D5E7
:10260000474F222E48D02A2E46D0616B0968496870
:102610006185618D19B1216C41F00401216441682B
:1026200021F400614160606BFDF700FE012808D0D5
:10263000606B4763606BFDF7ADFD10B1606B416B84
:102640008847608D08B320684169C943490708D4A9
:102650000069616A0870606A401C6062608D401E9B
:10266000608520684169C943490608D40069616AE8
:102670000870606A401C6062608D401E6085608DDD
:1026800018B1206C40F004002064206C00B3204698
:10269000BDE8F840FFF7F6BBA16B096849686185A2
:1026A000618D19B1216C41F004012164416821F46C
:1026B00000614160A06BFDF7B9FD0128C1D0A06B9E
:1026C0004763A06BFDF766FD0028BAD0A06BB6E7A4
:1026D0002A2E06D12563282084F83D002046FEF7E7
:1026E0007BF994F83D10202028290DD0216B222958
:1026F00001D0222E07D1256384F83D0084F83E5096
:102700002046FEF769F9F8BD0649E162256384F8C1
:102710003D0084F83E502046FEF7E4F8F8BD000086
:10272000C91D00080000FFFFF0B50268154B164CEC
:10273000164D4FF08046984205D0B04203D0A042DB
:1027400001D0A84203D14F6822F070023A43984268
:1027500005D0B04203D0A04201D0A84203D1CC683A
:1027600022F44072224302608A68C2620A8882624E
:10277000984201D109690163416941F00101416158
:102780000020F0BD002C0140000400400008004083
:10279000F0B501250023604C012908D0102933D061
:1027A000B1F5807F64D0B1F5805F5FD190E0016AC0
:1027B00021F001010162016A45688669176826F007
:1027C00073063E43176921F002013943576821F02F
:1027D00001013943A04212D1546921F0080141EAB4
:1027E0008401946821F0040141EA840125F4807495
:1027F00095692C43D56924F4007444EA4505456085
:102800008661D26842632FE0016A21F01001016203
:10281000016A45688669176826F4E64646EA07268F
:10282000176921F0200141EA0711576821F01001D2
:1028300041EA0711A04213D1546921F0800141EA15
:102840008411946821F0400141EA841125F48064E8
:10285000956944EA8504D56924F4006444EAC50511
:1028600045608661D268826301621D462846F0BDDC
:10287000016A21F480710162016A4568C6691768BE
:1028800026F073063E43176921F4007141EA0721DF
:10289000576821F4807141EA0721A04213D154699D
:1028A00021F4006141EA8421946821F4806141EAC5
:1028B000842125F48054956944EA0514D56924F4EB
:1028C000005444EA45154560C661D268C263CBE74F
:1028D000016A21F480510162056A4168C66917687E
:1028E00026F4E64646EA0726176925F4005545EA28
:1028F0000735576825F4805545EA0735A04204D1CD
:10290000946921F4804141EA84114160C661D16833
:1029100001640562A9E70000002C01402DE9F041A7
:1029200086B00024254800940194029403948169A0
:1029300041F020018161816901F0200104918169E8
:1029400041F004018161816901F004010491816910
:1029500041F0080181618069194F00F0080040F2E0
:1029600002250490002229463846FDF753FDDFF882
:102970005480002203214046FDF74CFD00950226BD
:1029800001250396CDE9015469463846FDF752FC0E
:102990000320CDE90005CDE9024669464046FDF732
:1029A00049FC4FF47040CDE900046946404602946A
:1029B000FDF740FC06B0BDE8F081000000100240C9
:1029C00000080140000C01400C480B494FF4007214
:1029D00001604FF48271416000218160C16001613A
:1029E000C0E905120822C0E90721416281620A217B
:1029F000C162FEF721BC000000300140C800002089
:102A000010B596B000240F9410941194129413945E
:102A10001C2168461494FDF79EFB202107A8FDF7B2
:102A20009AFB2248204901601221C0E901144FF4A9
:102A3000C871C0E9031444618461FEF703FD4FF4DB
:102A400080500F900FA91948FEF73EFD1748FEF77A
:102A5000FDFF139413A915481494FEF7BFFC6020E2
:102A6000CDE900040294039404940594002269467D
:102A70000E480694FEF787FF082269460B48FEF7CA
:102A800082FF0794089409944FF400500A94CDE90A
:102A90000B4007A905480E94FEF776FC0348FEF7A5
:102AA0004BFF16B010BD0000002C0140200100209B
:102AB00010B58CB024216846FDF74DFB0024124868
:102AC00009944FF080410A94C0E900144FF6FF7159
:102AD000C0E90241046184610320CDE900040120C2
:102AE000CDE902040494CDE90540079469460648FF
:102AF0000894FEF754FD099409A903480A94FEF7C7
:102B00006DFC0CB010BD00006801002010B58CB049
:102B100024216846FDF71FFB002412480994104940
:102B20000A94C0E900144FF6FF71C0E90241046144
:102B300084610320CDE900040120CDE9020404945E
:102B4000CDE905400794694606480894FEF727FD3D
:102B5000099409A903480A94FEF740FC0CB010BD83
:102B600000040040B0010020F0B58FB0142108A887
:102B7000FDF7F1FA20216846FDF7EDFA3648C16904
:102B800041F00401C161C06900F004000D903348B8
:102B90000068C0F30220011D072901D2002000E0D7
:102BA000C01E002505FA00F108012D4981F8000436
:102BB0004FF0E0214FF08040C1F800011720ADF840
:102BC00020004EF66020CDE90950264C08A9204689
:102BD0000B95FFF7A9FD206820F080002060A06819
:102BE00044F207018843A0601F4801781D4818304F
:102BF0000E1830681C4F0821FF1D3A789140084399
:102C000030606020CDE90005029503956A460121F8
:102C100020460495FFF7BCFD30683A7804219140C6
:102C200088433060606820F070006060A06820F029
:102C30008000A060E06840F00200E060E81E2061D3
:102C4000E06840F00100E060A81E2061206840F0CC
:102C5000010020600FB0F0BD001002400CED00E05C
:102C60001EE000E000080040E0320008FEE7704788
:102C700070477047FDF7B2BE30B593B02821684663
:102C8000FDF769FA14210AA8FDF765FA002401206E
:102C90000F9410941194010412948DE81300049081
:102CA0004FF4E010CDE90810022507956846FEF7BD
:102CB00033F90F20CDE90A056802CDE90C40022165
:102CC0000AA80E94FEF73CF810200F9012940FA85B
:102CD000FDF7C0FF13B030BD704700000148FEF79C
:102CE00077BD0000680100200148FEF771BD0000BB
:102CF000B001002009480169094AC1F340030221DB
:102D000013B14B1F03615161036913F0010F03D02D
:102D10006FF001030361116170470000000800407B
:102D200000080140F0B50268164B174C174D4FF0E4
:102D30008047984205D0B84203D0A04201D0A842B3
:102D400003D122F070064A683243984205D0B84257
:102D500003D0A04201D0A84203D122F44074CA6833
:102D600022434C6922F08002224302608A68C262D8
:102D70000A688262984201D10969016301214161B7
:102D8000F0BD0000002C014000040040000800409D
:102D900010B501F01F030121046A99408C430462BD
:102DA000016A9A401143016210BD10B5846842EA7D
:102DB000032224F47F440A432243826010BD8268C8
:102DC00022F070020A4342F0070181607047000060
:102DD00030B5026A22F001020262026A4368846925
:102DE00024F073050C682C4322F002058A682A43FC
:102DF0000A4DA8420BD122F00805CA6823F440739B
:102E00002A434D6922F004021D438B692B43436022
:102E1000846149684163026230BD0000002C0140BA
:102E200030B5026A22F010020262026A43688469C5
:102E30000D6824F4E64444EA05248D6822F020025B
:102E400042EA05120B4DA8420ED1CD6822F0800255
:102E500042EA05124D6923F4406343EA85038D6914
:102E600022F0400243EA850343608461496881633C
:102E7000026230BD002C014030B5026A22F480723B
:102E80000262036A4268C46923F4007324F0730584
:102E90000C682C438D6843EA05230C4DA8420ED1E3
:102EA000CD6823F4006343EA05234D6922F44052C0
:102EB00042EA05128D6923F4806342EA05124260FA
:102EC000C4614968C163036230BD0000002C014049
:102ED00030B5026A22F480520262046A4268C36911
:102EE0000D6823F4E64343EA05238D6824F4005477
:102EF00044EA0534064DA84204D14D6922F48042CB
:102F000042EA85124260C36149680164046230BDCF
:102F1000002C014010B5036A046A24F00104046225
:102F2000846924F0F00444EA021423F00A020A43FC
:102F30008461026210BD10B5036A23F010030362BE
:102F40008369046A23F4704343EA023224F0A00345
:102F500043EA01118261016210BD10B5406A00218F
:102F6000C185C184FEF7F2FD10BD0168CA6822F474
:102F70009072CA6001684A6922F001024A61202108
:102F800080F83A10704710B590F83A10222901D015
:102F9000022010BD82684FF480539A4201D101692A
:102FA00021B1816A9A421BD04AB10AE00268816A63
:102FB0005268C2F308020A80816A891C08E002692B
:102FC00072B10268526802F07F020A70816A491C7D
:102FD0008162C18D491E0904090CC18503D016E028
:102FE00002685268F1E70168CA6822F02002CA60EC
:102FF0000168CA6822F48072CA6001684A6922F0D6
:1030000001024A61202180F83A10FEF7C1FE00203B
:1030100010BD000070B5044600680169E26821F443
:103020004051114301612169A06808436169084367
:103030002168CA6841F20C639A430243CA6020685F
:103040004169A26921F44071114341611E49206820
:10305000884202D1FDF71AFF01E0FDF707FF00EB00
:10306000C00101EB0012606864218000B2FBF0F344
:10307000B3FBF1F36FF018067343B2FBF0F5B2FB4C
:10308000F0F605EB8305322303EB0515B5FBF1F5EF
:10309000B6FBF1F605F0F00505EB0615B2FBF0F610
:1030A000B2FBF0F0B0FBF1F06FF01802504306EB0A
:1030B000800003EB0010B0FBF1F0216800F00F007E
:1030C0002844886070BD0000003801400148FEF7C8
:1030D0003FBD0000F801002000207047002070472D
:1030E000012120F8401F00210180818001820846D3
:1030F000704730F8401F21F43F41018000207047A5
:1031000000207047FEE70907090E002804DB00F1E4
:10311000E02080F80014704700F00F0000F1E0207C
:1031200080F8141D704702E008C8121F08C1002A69
:10313000FAD170477047002001E001C1121F002A38
:10314000FBD1704710B50C46C2B202210348FDF70F
:1031500061F903480068446310BD0000000C0140A1
:103160002001002010B50C46C2B201210348FDF732
:1031700051F903480068C46310BD0000000C014011
:1031800020010020FDF732FCFFF776FDFFF7C6FBBC
:103190003B483A493B4D00240160C0E901540E14FC
:1031A000C0E9034644618461C4610462FDF7D6FA54
:1031B0003348354954300160C0E90154C0E9034641
:1031C00040214461C0E906410462FDF7C7FAFFF7F8
:1031D00017FC2F482D4901604FF4E131C0E901147B
:1031E0000C21C460C0E904418461C461FEF75EFD46
:1031F0002748284940300160082141608461C4614A
:10320000022104628160FDF7A3FCFFF7DDFBFFF7FD
:10321000ABFCFFF74DFCFFF779FC1D480021D838C7
:10322000FEF744FC1A480821D838FEF73FFC18483E
:1032300004219038FEF784FA154804214838FEF737
:103240007FFA154E4FF47A772546B4600220401C71
:10325000B842FCDB6D1CBD42F8DBC6E902500C48ED
:1032600090380068406A4042308009484838006819
:10327000406A4042708000F011F8E5E700540040D9
:1032800020000020A08601000058004000440040BB
:10329000F8010020005C00400000002070B56421AF
:1032A0000120FFF74FFF32210120FFF75BFF0B4C9E
:1032B000B4F900004FF47A75A84203DD0021012023
:1032C000FFF740FFB4F90200A84205DDBDE87040F9
:1032D00000210120FFF746BF70BD00000000002064
:1032E00000000000040404000008000000080000C2
:1032F00000000000000001020304060708090000A6
:103300000000010203040000283300080000002030
:10331000200000002631000848330008200000206B
:103320006809000036310008000000006400000059
:10333000000000000000000001000000100000007C
:08334000000000000024F4006D
:04000005080000ED02
:00000001FF
